{
  "_format": "hh-sol-artifact-1",
  "contractName": "Creto",
  "sourceName": "contracts/Creto.sol",
  "abi": [
    {
      "anonymous": false,
      "inputs": [
        {
          "indexed": false,
          "internalType": "string",
          "name": "documentHash",
          "type": "string"
        },
        {
          "indexed": false,
          "internalType": "string",
          "name": "documentName",
          "type": "string"
        },
        {
          "indexed": false,
          "internalType": "address",
          "name": "owner",
          "type": "address"
        },
        {
          "indexed": false,
          "internalType": "uint256",
          "name": "timestamp",
          "type": "uint256"
        }
      ],
      "name": "DocumentUploaded",
      "type": "event"
    },
    {
      "inputs": [
        {
          "internalType": "string",
          "name": "",
          "type": "string"
        }
      ],
      "name": "documents",
      "outputs": [
        {
          "internalType": "string",
          "name": "documentHash",
          "type": "string"
        },
        {
          "internalType": "string",
          "name": "documentName",
          "type": "string"
        },
        {
          "internalType": "uint256",
          "name": "timestamp",
          "type": "uint256"
        },
        {
          "internalType": "address",
          "name": "owner",
          "type": "address"
        }
      ],
      "stateMutability": "view",
      "type": "function"
    },
    {
      "inputs": [
        {
          "internalType": "string",
          "name": "documentHash",
          "type": "string"
        }
      ],
      "name": "getDocumentDetails",
      "outputs": [
        {
          "internalType": "string",
          "name": "",
          "type": "string"
        },
        {
          "internalType": "string",
          "name": "",
          "type": "string"
        },
        {
          "internalType": "uint256",
          "name": "",
          "type": "uint256"
        },
        {
          "internalType": "address",
          "name": "",
          "type": "address"
        }
      ],
      "stateMutability": "view",
      "type": "function"
    },
    {
      "inputs": [
        {
          "internalType": "string",
          "name": "",
          "type": "string"
        },
        {
          "internalType": "uint256",
          "name": "",
          "type": "uint256"
        }
      ],
      "name": "ownershipRecords",
      "outputs": [
        {
          "internalType": "address",
          "name": "ownerAddress",
          "type": "address"
        },
        {
          "internalType": "uint256",
          "name": "datePurchased",
          "type": "uint256"
        }
      ],
      "stateMutability": "view",
      "type": "function"
    },
    {
      "inputs": [
        {
          "internalType": "string",
          "name": "documentHash",
          "type": "string"
        },
        {
          "internalType": "address",
          "name": "newOwner",
          "type": "address"
        }
      ],
      "name": "transferDocumentOwnership",
      "outputs": [],
      "stateMutability": "nonpayable",
      "type": "function"
    },
    {
      "inputs": [
        {
          "internalType": "string",
          "name": "documentHash",
          "type": "string"
        },
        {
          "internalType": "string",
          "name": "documentName",
          "type": "string"
        }
      ],
      "name": "uploadDocument",
      "outputs": [],
      "stateMutability": "nonpayable",
      "type": "function"
    }
  ],
  "bytecode": "0x608060405234801561001057600080fd5b50610b96806100206000396000f3fe608060405234801561001057600080fd5b50600436106100575760003560e01c80634464fe331461005c578063a6ec84b414610071578063b039bcde146100a8578063b3dd697b146100bb578063d29352db146100de575b600080fd5b61006f61006a3660046108e0565b6100f1565b005b61008461007f366004610944565b6102c4565b604080516001600160a01b0390931683526020830191909152015b60405180910390f35b61006f6100b6366004610989565b610319565b6100ce6100c93660046109e7565b610452565b60405161009f9493929190610a80565b6100ce6100ec3660046109e7565b61059f565b6000826040516101019190610ac7565b908152604051908190036020019020805461011b90610ae3565b15905061016f5760405162461bcd60e51b815260206004820152601760248201527f446f63756d656e7420616c72656164792065786973747300000000000000000060448201526064015b60405180910390fd5b60408051608081018252838152602081018390524281830152336060820152905160009061019e908590610ac7565b908152602001604051809103902060008201518160000190805190602001906101c89291906107a4565b5060208281015180516101e192600185019201906107a4565b506040828101516002830155606090920151600390910180546001600160a01b0319166001600160a01b0390921691909117905551600190610224908490610ac7565b9081526040805160209281900383018120818301835233808352428584018181528354600180820186556000958652979094209451600290940290940180546001600160a01b0319166001600160a01b039094169390931783559251919094015590517f93927b0d9834093785e70bd57a140167d39ee36e448053a22ad7fed18f8aee05926102b892869286929190610b1e565b60405180910390a15050565b815160208184018101805160018252928201918501919091209190528054829081106102ef57600080fd5b6000918252602090912060029091020180546001909101546001600160a01b039091169250905082565b336001600160a01b03166000836040516103339190610ac7565b908152604051908190036020019020600301546001600160a01b03161461039c5760405162461bcd60e51b815260206004820152601b60248201527f4f6e6c7920746865206f776e65722063616e207472616e7366657200000000006044820152606401610166565b806000836040516103ad9190610ac7565b90815260405190819003602001812060030180546001600160a01b03939093166001600160a01b0319909316929092179091556001906103ee908490610ac7565b90815260408051602092819003830181208183019092526001600160a01b039384168152428382019081528254600180820185556000948552949093209151600290930290910180546001600160a01b031916929094169190911783555191015550565b805160208183018101805160008252928201919093012091528054819061047890610ae3565b80601f01602080910402602001604051908101604052809291908181526020018280546104a490610ae3565b80156104f15780601f106104c6576101008083540402835291602001916104f1565b820191906000526020600020905b8154815290600101906020018083116104d457829003601f168201915b50505050509080600101805461050690610ae3565b80601f016020809104026020016040519081016040528092919081815260200182805461053290610ae3565b801561057f5780601f106105545761010080835404028352916020019161057f565b820191906000526020600020905b81548152906001019060200180831161056257829003601f168201915b5050505060028301546003909301549192916001600160a01b0316905084565b6060806000806000856040516105b59190610ac7565b90815260405190819003602001902080546105cf90610ae3565b151590506106145760405162461bcd60e51b8152602060048201526012602482015271111bd8dd5b595b9d081b9bdd08199bdd5b9960721b6044820152606401610166565b600080866040516106259190610ac7565b908152602001604051809103902060405180608001604052908160008201805461064e90610ae3565b80601f016020809104026020016040519081016040528092919081815260200182805461067a90610ae3565b80156106c75780601f1061069c576101008083540402835291602001916106c7565b820191906000526020600020905b8154815290600101906020018083116106aa57829003601f168201915b505050505081526020016001820180546106e090610ae3565b80601f016020809104026020016040519081016040528092919081815260200182805461070c90610ae3565b80156107595780601f1061072e57610100808354040283529160200191610759565b820191906000526020600020905b81548152906001019060200180831161073c57829003601f168201915b505050918352505060028201546020808301919091526003909201546001600160a01b0316604091820152825191830151908301516060909301519199909850919650945092505050565b8280546107b090610ae3565b90600052602060002090601f0160209004810192826107d25760008555610818565b82601f106107eb57805160ff1916838001178555610818565b82800160010185558215610818579182015b828111156108185782518255916020019190600101906107fd565b50610824929150610828565b5090565b5b808211156108245760008155600101610829565b634e487b7160e01b600052604160045260246000fd5b600082601f83011261086457600080fd5b813567ffffffffffffffff8082111561087f5761087f61083d565b604051601f8301601f19908116603f011681019082821181831017156108a7576108a761083d565b816040528381528660208588010111156108c057600080fd5b836020870160208301376000602085830101528094505050505092915050565b600080604083850312156108f357600080fd5b823567ffffffffffffffff8082111561090b57600080fd5b61091786838701610853565b9350602085013591508082111561092d57600080fd5b5061093a85828601610853565b9150509250929050565b6000806040838503121561095757600080fd5b823567ffffffffffffffff81111561096e57600080fd5b61097a85828601610853565b95602094909401359450505050565b6000806040838503121561099c57600080fd5b823567ffffffffffffffff8111156109b357600080fd5b6109bf85828601610853565b92505060208301356001600160a01b03811681146109dc57600080fd5b809150509250929050565b6000602082840312156109f957600080fd5b813567ffffffffffffffff811115610a1057600080fd5b610a1c84828501610853565b949350505050565b60005b83811015610a3f578181015183820152602001610a27565b83811115610a4e576000848401525b50505050565b60008151808452610a6c816020860160208601610a24565b601f01601f19169290920160200192915050565b608081526000610a936080830187610a54565b8281036020840152610aa58187610a54565b604084019590955250506001600160a01b039190911660609091015292915050565b60008251610ad9818460208701610a24565b9190910192915050565b600181811c90821680610af757607f821691505b60208210811415610b1857634e487b7160e01b600052602260045260246000fd5b50919050565b608081526000610b316080830187610a54565b8281036020840152610b438187610a54565b6001600160a01b039590951660408401525050606001529291505056fea2646970667358221220effa2ba30817bf1b208fa9cd7e34532ee8ac4e912c4475418b443813fce0bde964736f6c63430008090033",
  "linkReferences": {},
  "deployedLinkReferences": {}
}