{
  "_format": "hh-sol-artifact-1",
  "contractName": "OwnChain",
  "sourceName": "contracts/OwnChain.sol",
  "abi": [
    {
      "anonymous": false,
      "inputs": [
        {
          "indexed": false,
          "internalType": "string",
          "name": "serialNumber",
          "type": "string"
        },
        {
          "indexed": false,
          "internalType": "address",
          "name": "owner",
          "type": "address"
        }
      ],
      "name": "AssetMarkedOffSale",
      "type": "event"
    },
    {
      "anonymous": false,
      "inputs": [
        {
          "indexed": false,
          "internalType": "string",
          "name": "serialNumber",
          "type": "string"
        },
        {
          "indexed": false,
          "internalType": "address",
          "name": "owner",
          "type": "address"
        }
      ],
      "name": "AssetMarkedOnSale",
      "type": "event"
    },
    {
      "anonymous": false,
      "inputs": [
        {
          "indexed": false,
          "internalType": "string",
          "name": "serialNumber",
          "type": "string"
        },
        {
          "indexed": false,
          "internalType": "address",
          "name": "owner",
          "type": "address"
        }
      ],
      "name": "AssetRecordCreated",
      "type": "event"
    },
    {
      "anonymous": false,
      "inputs": [
        {
          "indexed": false,
          "internalType": "string",
          "name": "serialNumber",
          "type": "string"
        },
        {
          "indexed": false,
          "internalType": "address",
          "name": "owner",
          "type": "address"
        },
        {
          "indexed": false,
          "internalType": "address",
          "name": "buyer",
          "type": "address"
        }
      ],
      "name": "OfferApproved",
      "type": "event"
    },
    {
      "anonymous": false,
      "inputs": [
        {
          "indexed": false,
          "internalType": "string",
          "name": "serialNumber",
          "type": "string"
        },
        {
          "indexed": false,
          "internalType": "address",
          "name": "owner",
          "type": "address"
        },
        {
          "indexed": false,
          "internalType": "address",
          "name": "buyer",
          "type": "address"
        }
      ],
      "name": "OfferCreated",
      "type": "event"
    },
    {
      "anonymous": false,
      "inputs": [
        {
          "indexed": false,
          "internalType": "string",
          "name": "serialNumber",
          "type": "string"
        },
        {
          "indexed": false,
          "internalType": "address",
          "name": "previousOwner",
          "type": "address"
        },
        {
          "indexed": false,
          "internalType": "address",
          "name": "newOwner",
          "type": "address"
        }
      ],
      "name": "PaidForAsset",
      "type": "event"
    },
    {
      "anonymous": false,
      "inputs": [
        {
          "indexed": false,
          "internalType": "string",
          "name": "serialNumber",
          "type": "string"
        },
        {
          "indexed": false,
          "internalType": "address",
          "name": "withdrawer",
          "type": "address"
        },
        {
          "indexed": false,
          "internalType": "uint256",
          "name": "amount",
          "type": "uint256"
        }
      ],
      "name": "WithdrawBidAmound",
      "type": "event"
    },
    {
      "inputs": [
        {
          "internalType": "string",
          "name": "",
          "type": "string"
        },
        {
          "internalType": "uint256",
          "name": "",
          "type": "uint256"
        }
      ],
      "name": "OwnershipRecord",
      "outputs": [
        {
          "internalType": "address",
          "name": "ownerAddress",
          "type": "address"
        },
        {
          "internalType": "uint256",
          "name": "datePurchased",
          "type": "uint256"
        }
      ],
      "stateMutability": "view",
      "type": "function"
    },
    {
      "inputs": [
        {
          "internalType": "string",
          "name": "serialNumber",
          "type": "string"
        }
      ],
      "name": "approveOffer",
      "outputs": [],
      "stateMutability": "nonpayable",
      "type": "function"
    },
    {
      "inputs": [
        {
          "internalType": "string",
          "name": "",
          "type": "string"
        }
      ],
      "name": "assets",
      "outputs": [
        {
          "internalType": "string",
          "name": "name",
          "type": "string"
        },
        {
          "internalType": "string",
          "name": "brand",
          "type": "string"
        },
        {
          "internalType": "string",
          "name": "serialNumber",
          "type": "string"
        },
        {
          "internalType": "string",
          "name": "purchaseRecord",
          "type": "string"
        },
        {
          "internalType": "address",
          "name": "latestOwner",
          "type": "address"
        },
        {
          "internalType": "bool",
          "name": "isOnSale",
          "type": "bool"
        }
      ],
      "stateMutability": "view",
      "type": "function"
    },
    {
      "inputs": [
        {
          "internalType": "string",
          "name": "name",
          "type": "string"
        },
        {
          "internalType": "string",
          "name": "brand",
          "type": "string"
        },
        {
          "internalType": "string",
          "name": "serialNumber",
          "type": "string"
        },
        {
          "internalType": "string",
          "name": "purchaseRecord",
          "type": "string"
        }
      ],
      "name": "createAssetRecord",
      "outputs": [],
      "stateMutability": "nonpayable",
      "type": "function"
    },
    {
      "inputs": [
        {
          "internalType": "string",
          "name": "serialNumber",
          "type": "string"
        },
        {
          "internalType": "uint256",
          "name": "offer",
          "type": "uint256"
        }
      ],
      "name": "createOffer",
      "outputs": [],
      "stateMutability": "nonpayable",
      "type": "function"
    },
    {
      "inputs": [
        {
          "internalType": "string",
          "name": "",
          "type": "string"
        }
      ],
      "name": "offers",
      "outputs": [
        {
          "internalType": "uint256",
          "name": "offer",
          "type": "uint256"
        },
        {
          "internalType": "address",
          "name": "buyerAddress",
          "type": "address"
        },
        {
          "internalType": "bool",
          "name": "approved",
          "type": "bool"
        },
        {
          "internalType": "bool",
          "name": "completed",
          "type": "bool"
        }
      ],
      "stateMutability": "view",
      "type": "function"
    },
    {
      "inputs": [
        {
          "internalType": "string",
          "name": "serialNumber",
          "type": "string"
        }
      ],
      "name": "payForAsset",
      "outputs": [],
      "stateMutability": "payable",
      "type": "function"
    },
    {
      "inputs": [
        {
          "internalType": "string",
          "name": "serialNumber",
          "type": "string"
        }
      ],
      "name": "setAssetOffSale",
      "outputs": [],
      "stateMutability": "nonpayable",
      "type": "function"
    },
    {
      "inputs": [
        {
          "internalType": "string",
          "name": "serialNumber",
          "type": "string"
        }
      ],
      "name": "setAssetOnSale",
      "outputs": [],
      "stateMutability": "nonpayable",
      "type": "function"
    },
    {
      "inputs": [
        {
          "internalType": "string",
          "name": "serialNumber",
          "type": "string"
        }
      ],
      "name": "withdraw",
      "outputs": [
        {
          "internalType": "bool",
          "name": "",
          "type": "bool"
        }
      ],
      "stateMutability": "payable",
      "type": "function"
    },
    {
      "stateMutability": "payable",
      "type": "receive"
    }
  ],
  "bytecode": "0x608060405234801561001057600080fd5b50611331806100206000396000f3fe6080604052600436106100955760003560e01c80637e0b455b116100595780637e0b455b1461016a578063859362281461018a578063ab5130dc146101bc578063b6c5ac96146101cf578063d5fd3776146101ef57600080fd5b8063044d43b8146100a15780630a39f17e146100c35780631ae620fa146101075780632b0394db1461012757806331fb67c21461014757600080fd5b3661009c57005b600080fd5b3480156100ad57600080fd5b506100c16100bc36600461101d565b61027e565b005b3480156100cf57600080fd5b506100e36100de36600461105a565b610397565b604080516001600160a01b0390931683526020830191909152015b60405180910390f35b34801561011357600080fd5b506100c161012236600461101d565b6103ec565b34801561013357600080fd5b506100c161014236600461109f565b61049a565b61015a61015536600461101d565b610619565b60405190151581526020016100fe565b34801561017657600080fd5b506100c161018536600461105a565b610737565b34801561019657600080fd5b506101aa6101a536600461101d565b6108a5565b6040516100fe969594939291906111a8565b6100c16101ca36600461101d565b610b14565b3480156101db57600080fd5b506100c16101ea36600461101d565b610d06565b3480156101fb57600080fd5b5061024e61020a36600461101d565b805180820160209081018051600282529282019190930120915280546001909101546001600160a01b0381169060ff600160a01b8204811691600160a81b90041684565b604080519485526001600160a01b03909316602085015290151591830191909152151560608201526080016100fe565b60008160405161028e9190611219565b90815260405190819003602001902060040154336001600160a01b03909116146102b757600080fd5b6000816040516102c79190611219565b90815260405160209181900391909101902060040154600160a01b900460ff1615156001146102f557600080fd5b60016002826040516103079190611219565b908152602001604051809103902060010160146101000a81548160ff0219169083151502179055507f1f399c23a642653c00ebdfe02e152b9ac01430ea06ea9f251ce248aea3092e42816000836040516103619190611219565b9081526040519081900360200181206004015461038c92916001600160a01b03909116903390611235565b60405180910390a150565b815160208184018101805160018252928201918501919091209190528054829081106103c257600080fd5b6000918252602090912060029091020180546001909101546001600160a01b039091169250905082565b336001600160a01b03166000826040516104069190611219565b908152604051908190036020019020600401546001600160a01b03161461042c57600080fd5b600160008260405161043e9190611219565b9081526040519081900360200181206004018054921515600160a01b0260ff60a01b19909316929092179091557fb3763cf0e4e2b226d3e108ebc1034f506e62f2cec32b1ddcc17282c384ad45149061038c9083903390611268565b6000826040516104aa9190611219565b90815260405190819003602001902080546104c490611292565b1590506104d057600080fd5b6040518060c00160405280858152602001848152602001838152602001828152602001336001600160a01b03168152602001600015158152506000836040516105199190611219565b90815260200160405180910390206000820151816000019080519060200190610543929190610ee1565b50602082810151805161055c9260018501920190610ee1565b5060408201518051610578916002840191602090910190610ee1565b5060608201518051610594916003840191602090910190610ee1565b5060808201516004909101805460a0909301511515600160a01b026001600160a81b03199093166001600160a01b03909216919091179190911790556105da8233610db3565b7fa82a7a77e80b37f0d95d20d510269ad905302bbbbb5e872e2c20e100eb1ef273823360405161060b929190611268565b60405180910390a150505050565b600060038260405161062b9190611219565b90815260405190819003602001902054336001600160a01b039091161461065157600080fd5b60006003836040516106639190611219565b90815260405190819003602001902060010154905080156106cc57604051339082156108fc029083906000818181858888f193505050506106cc5760006003846040516106b09190611219565b9081526040519081900360200190206001015550600092915050565b7f9c288e8d816ecef1675da2a965d0cec130cff99ded63732fd09102b47c5e6c4e836003856040516106fe9190611219565b9081526040519081900360200181205461072692916001600160a01b039091169085906112cd565b60405180910390a150600192915050565b6000826040516107479190611219565b90815260405160209181900391909101902060040154600160a01b900460ff16151560011461077557600080fd5b6002826040516107859190611219565b9081526040519081900360200190205481116107a057600080fd5b604080516080810182528281523360208201526000818301819052606082015290516002906107d0908590611219565b908152604080519182900360209081018320845181559084015160019091018054928501516060909501511515600160a81b0260ff60a81b19951515600160a01b026001600160a81b03199094166001600160a01b03909316929092179290921793909316929092179091557fd4a8a5faf05f4eac9cc3e8309d4972f81f26912caf1df9fc7e9427dd5ea5e3ce90839060009061086e908390611219565b9081526040519081900360200181206004015461089992916001600160a01b03909116903390611235565b60405180910390a15050565b80516020818301810180516000825292820191909301209152805481906108cb90611292565b80601f01602080910402602001604051908101604052809291908181526020018280546108f790611292565b80156109445780601f1061091957610100808354040283529160200191610944565b820191906000526020600020905b81548152906001019060200180831161092757829003601f168201915b50505050509080600101805461095990611292565b80601f016020809104026020016040519081016040528092919081815260200182805461098590611292565b80156109d25780601f106109a7576101008083540402835291602001916109d2565b820191906000526020600020905b8154815290600101906020018083116109b557829003601f168201915b5050505050908060020180546109e790611292565b80601f0160208091040260200160405190810160405280929190818152602001828054610a1390611292565b8015610a605780601f10610a3557610100808354040283529160200191610a60565b820191906000526020600020905b815481529060010190602001808311610a4357829003601f168201915b505050505090806003018054610a7590611292565b80601f0160208091040260200160405190810160405280929190818152602001828054610aa190611292565b8015610aee5780601f10610ac357610100808354040283529160200191610aee565b820191906000526020600020905b815481529060010190602001808311610ad157829003601f168201915b505050600490930154919250506001600160a01b0381169060ff600160a01b9091041686565b600281604051610b249190611219565b90815260405190819003602001902060019081015460ff600160a01b90910416151514610b5057600080fd5b336001600160a01b0316600282604051610b6a9190611219565b908152604051908190036020019020600101546001600160a01b031614610b9057600080fd5b34333111610b9d57600080fd5b600281604051610bad9190611219565b908152604051908190036020019020543411610bc857600080fd5b600281604051610bd89190611219565b526040805180820191829052908190600090610bf5908590611219565b9081526040805160209281900383019020600401546001600160a01b0316835234929091019190915251600390610c2d908490611219565b90815260405160209181900382018120835181546001600160a01b0319166001600160a01b0390911617815592909101516001909201919091553390600090610c77908490611219565b908152602001604051809103902060040160006101000a8154816001600160a01b0302191690836001600160a01b031602179055507f354d00252d3c741f9619ce998945b072727b3a2b8002accf0a46434fce11aff481600383604051610cde9190611219565b9081526040519081900360200181205461038c92916001600160a01b03909116903390611235565b336001600160a01b0316600082604051610d209190611219565b908152604051908190036020019020600401546001600160a01b031614610d4657600080fd5b60008082604051610d579190611219565b9081526040519081900360200181206004018054921515600160a01b0260ff60a01b19909316929092179091557f4f80c1cacdd8f57f2542ca9fbc650f4fa3b4ca5f88ce075b87b8909d57cc08769061038c9083903390611268565b600082604051610dc39190611219565b9081526040519081900360200190208054610ddd90611292565b15159050610dea57600080fd5b600182604051610dfa9190611219565b908152604080516020928190038301812081830183526001600160a01b0385811683524285840190815282546001808201855560009485529684209451600290910290940180546001600160a01b031916949092169390931781559151919093015551829190610e6b908590611219565b908152602001604051809103902060040160006101000a8154816001600160a01b0302191690836001600160a01b0316021790555060008083604051610eb19190611219565b9081526040519081900360200190206004018054911515600160a01b0260ff60a01b199092169190911790555050565b828054610eed90611292565b90600052602060002090601f016020900481019282610f0f5760008555610f55565b82601f10610f2857805160ff1916838001178555610f55565b82800160010185558215610f55579182015b82811115610f55578251825591602001919060010190610f3a565b50610f61929150610f65565b5090565b5b80821115610f615760008155600101610f66565b634e487b7160e01b600052604160045260246000fd5b600082601f830112610fa157600080fd5b813567ffffffffffffffff80821115610fbc57610fbc610f7a565b604051601f8301601f19908116603f01168101908282118183101715610fe457610fe4610f7a565b81604052838152866020858801011115610ffd57600080fd5b836020870160208301376000602085830101528094505050505092915050565b60006020828403121561102f57600080fd5b813567ffffffffffffffff81111561104657600080fd5b61105284828501610f90565b949350505050565b6000806040838503121561106d57600080fd5b823567ffffffffffffffff81111561108457600080fd5b61109085828601610f90565b95602094909401359450505050565b600080600080608085870312156110b557600080fd5b843567ffffffffffffffff808211156110cd57600080fd5b6110d988838901610f90565b955060208701359150808211156110ef57600080fd5b6110fb88838901610f90565b9450604087013591508082111561111157600080fd5b61111d88838901610f90565b9350606087013591508082111561113357600080fd5b5061114087828801610f90565b91505092959194509250565b60005b8381101561116757818101518382015260200161114f565b83811115611176576000848401525b50505050565b6000815180845261119481602086016020860161114c565b601f01601f19169290920160200192915050565b60c0815260006111bb60c083018961117c565b82810360208401526111cd818961117c565b905082810360408401526111e1818861117c565b905082810360608401526111f5818761117c565b6001600160a01b03959095166080840152505090151560a090910152949350505050565b6000825161122b81846020870161114c565b9190910192915050565b606081526000611248606083018661117c565b6001600160a01b0394851660208401529290931660409091015292915050565b60408152600061127b604083018561117c565b905060018060a01b03831660208301529392505050565b600181811c908216806112a657607f821691505b602082108114156112c757634e487b7160e01b600052602260045260246000fd5b50919050565b6060815260006112e0606083018661117c565b6001600160a01b03949094166020830152506040015291905056fea2646970667358221220fafcfab25244919396a885134252f1dfe1193e834867df032d4d9cfa971b6fcc64736f6c63430008090033",
  "linkReferences": {},
  "deployedLinkReferences": {}
}